{
  "contractName": "BatchTransfer",
  "abi": [
    {
      "inputs": [
        {
          "internalType": "address",
          "name": "_token",
          "type": "address"
        },
        {
          "internalType": "bytes32",
          "name": "_merkleRoot",
          "type": "bytes32"
        }
      ],
      "stateMutability": "nonpayable",
      "type": "constructor"
    },
    {
      "anonymous": false,
      "inputs": [
        {
          "indexed": true,
          "internalType": "address",
          "name": "user",
          "type": "address"
        },
        {
          "indexed": true,
          "internalType": "uint256",
          "name": "amount",
          "type": "uint256"
        }
      ],
      "name": "Airdropped",
      "type": "event"
    },
    {
      "anonymous": false,
      "inputs": [
        {
          "indexed": true,
          "internalType": "address",
          "name": "previousOwner",
          "type": "address"
        },
        {
          "indexed": true,
          "internalType": "address",
          "name": "newOwner",
          "type": "address"
        }
      ],
      "name": "OwnershipTransferred",
      "type": "event"
    },
    {
      "anonymous": false,
      "inputs": [
        {
          "indexed": true,
          "internalType": "address",
          "name": "owner",
          "type": "address"
        },
        {
          "indexed": true,
          "internalType": "uint256",
          "name": "balance",
          "type": "uint256"
        }
      ],
      "name": "WithdrawBalance",
      "type": "event"
    },
    {
      "inputs": [
        {
          "internalType": "address",
          "name": "",
          "type": "address"
        }
      ],
      "name": "hasAirdropped",
      "outputs": [
        {
          "internalType": "bool",
          "name": "",
          "type": "bool"
        }
      ],
      "stateMutability": "view",
      "type": "function",
      "constant": true
    },
    {
      "inputs": [],
      "name": "merkleRoot",
      "outputs": [
        {
          "internalType": "bytes32",
          "name": "",
          "type": "bytes32"
        }
      ],
      "stateMutability": "view",
      "type": "function",
      "constant": true
    },
    {
      "inputs": [],
      "name": "owner",
      "outputs": [
        {
          "internalType": "address",
          "name": "",
          "type": "address"
        }
      ],
      "stateMutability": "view",
      "type": "function",
      "constant": true
    },
    {
      "inputs": [],
      "name": "renounceOwnership",
      "outputs": [],
      "stateMutability": "nonpayable",
      "type": "function"
    },
    {
      "inputs": [],
      "name": "token",
      "outputs": [
        {
          "internalType": "contract IERC20",
          "name": "",
          "type": "address"
        }
      ],
      "stateMutability": "view",
      "type": "function",
      "constant": true
    },
    {
      "inputs": [
        {
          "internalType": "address",
          "name": "newOwner",
          "type": "address"
        }
      ],
      "name": "transferOwnership",
      "outputs": [],
      "stateMutability": "nonpayable",
      "type": "function"
    },
    {
      "inputs": [
        {
          "internalType": "address[]",
          "name": "_recipients",
          "type": "address[]"
        },
        {
          "internalType": "uint256",
          "name": "_amount",
          "type": "uint256"
        },
        {
          "internalType": "bytes32[][]",
          "name": "_merkleProofs",
          "type": "bytes32[][]"
        }
      ],
      "name": "batchTransfer",
      "outputs": [],
      "stateMutability": "nonpayable",
      "type": "function"
    },
    {
      "inputs": [],
      "name": "withdrawBalance",
      "outputs": [],
      "stateMutability": "nonpayable",
      "type": "function"
    },
    {
      "inputs": [
        {
          "internalType": "address",
          "name": "_new",
          "type": "address"
        }
      ],
      "name": "updateTokenContract",
      "outputs": [],
      "stateMutability": "nonpayable",
      "type": "function"
    }
  ],
  "bytecode": "0x60a06040523480156200001157600080fd5b5060405162001d6c38038062001d6c833981810160405281019062000037919062000219565b620000576200004b620000a860201b60201c565b620000b060201b60201c565b81600160006101000a81548173ffffffffffffffffffffffffffffffffffffffff021916908373ffffffffffffffffffffffffffffffffffffffff1602179055508060808181525050505062000260565b600033905090565b60008060009054906101000a900473ffffffffffffffffffffffffffffffffffffffff169050816000806101000a81548173ffffffffffffffffffffffffffffffffffffffff021916908373ffffffffffffffffffffffffffffffffffffffff1602179055508173ffffffffffffffffffffffffffffffffffffffff168173ffffffffffffffffffffffffffffffffffffffff167f8be0079c531659141344cd1fd0a4f28419497f9722a3daafe3b4186f6b6457e060405160405180910390a35050565b600080fd5b600073ffffffffffffffffffffffffffffffffffffffff82169050919050565b6000620001a68262000179565b9050919050565b620001b88162000199565b8114620001c457600080fd5b50565b600081519050620001d881620001ad565b92915050565b6000819050919050565b620001f381620001de565b8114620001ff57600080fd5b50565b6000815190506200021381620001e8565b92915050565b6000806040838503121562000233576200023262000174565b5b60006200024385828601620001c7565b9250506020620002568582860162000202565b9150509250929050565b608051611ae96200028360003960008181610445015261063b0152611ae96000f3fe608060405234801561001057600080fd5b50600436106100935760003560e01c8063715018a611610066578063715018a61461010c5780638da5cb5b14610116578063989ced2614610134578063f2fde38b14610150578063fc0c546a1461016c57610093565b806304c1938b146100985780632a160a46146100c85780632eb4a7ab146100e45780635fd8c71014610102575b600080fd5b6100b260048036038101906100ad9190610e89565b61018a565b6040516100bf9190610ed1565b60405180910390f35b6100e260048036038101906100dd9190610fdd565b6101aa565b005b6100ec610639565b6040516100f9919061108b565b60405180910390f35b61010a61065d565b005b6101146107dc565b005b61011e6107f0565b60405161012b91906110b5565b60405180910390f35b61014e60048036038101906101499190610e89565b610819565b005b61016a60048036038101906101659190610e89565b610865565b005b6101746108e8565b604051610181919061112f565b60405180910390f35b60026020528060005260406000206000915054906101000a900460ff1681565b6101b261090e565b6000858590509050600081116101fd576040517f08c379a00000000000000000000000000000000000000000000000000000000081526004016101f4906111a7565b60405180910390fd5b6064811115610241576040517f08c379a000000000000000000000000000000000000000000000000000000000815260040161023890611213565b60405180910390fd5b828290508114610286576040517f08c379a000000000000000000000000000000000000000000000000000000000815260040161027d906112a5565b60405180910390fd5b6000818561029491906112f4565b9050600160009054906101000a900473ffffffffffffffffffffffffffffffffffffffff1673ffffffffffffffffffffffffffffffffffffffff166370a08231306040518263ffffffff1660e01b81526004016102f191906110b5565b602060405180830381865afa15801561030e573d6000803e3d6000fd5b505050506040513d601f19601f820116820180604052508101906103329190611363565b811115610374576040517f08c379a000000000000000000000000000000000000000000000000000000000815260040161036b906113dc565b60405180910390fd5b60005b8281101561062f576000888883818110610394576103936113fc565b5b90506020020160208101906103a99190610e89565b905060008686848181106103c0576103bf6113fc565b5b90506020028101906103d2919061143a565b80806020026020016040519081016040528093929190818152602001838360200280828437600081840152601f19601f82011690508083019250505050505050905060008260405160200161042791906114e5565b60405160208183030381529060405280519060200120905061046a827f00000000000000000000000000000000000000000000000000000000000000008361098c565b6104a9576040517f08c379a00000000000000000000000000000000000000000000000000000000081526004016104a09061154c565b60405180910390fd5b600260008473ffffffffffffffffffffffffffffffffffffffff1673ffffffffffffffffffffffffffffffffffffffff16815260200190815260200160002060009054906101000a900460ff1615610536576040517f08c379a000000000000000000000000000000000000000000000000000000000815260040161052d906115b8565b60405180910390fd5b610583838a600160009054906101000a900473ffffffffffffffffffffffffffffffffffffffff1673ffffffffffffffffffffffffffffffffffffffff166109a39092919063ffffffff16565b6001600260008573ffffffffffffffffffffffffffffffffffffffff1673ffffffffffffffffffffffffffffffffffffffff16815260200190815260200160002060006101000a81548160ff021916908315150217905550888373ffffffffffffffffffffffffffffffffffffffff167f7bd6d4be1decdc27a9ed9c7ccdf5bb7cc38e31b3647b958c6b37162a2296c0fa60405160405180910390a38380600101945050505050610377565b5050505050505050565b7f000000000000000000000000000000000000000000000000000000000000000081565b61066561090e565b6000600160009054906101000a900473ffffffffffffffffffffffffffffffffffffffff1673ffffffffffffffffffffffffffffffffffffffff166370a08231306040518263ffffffff1660e01b81526004016106c291906110b5565b602060405180830381865afa1580156106df573d6000803e3d6000fd5b505050506040513d601f19601f820116820180604052508101906107039190611363565b905060008111610748576040517f08c379a000000000000000000000000000000000000000000000000000000000815260040161073f90611624565b60405180910390fd5b6107953382600160009054906101000a900473ffffffffffffffffffffffffffffffffffffffff1673ffffffffffffffffffffffffffffffffffffffff166109a39092919063ffffffff16565b803373ffffffffffffffffffffffffffffffffffffffff167f0875ab8e60d8ffe0781ba5e1d1adadeb6250bc1bee87d3094cc6ac4eb9f8851260405160405180910390a350565b6107e461090e565b6107ee6000610a29565b565b60008060009054906101000a900473ffffffffffffffffffffffffffffffffffffffff16905090565b61082161090e565b80600160006101000a81548173ffffffffffffffffffffffffffffffffffffffff021916908373ffffffffffffffffffffffffffffffffffffffff16021790555050565b61086d61090e565b600073ffffffffffffffffffffffffffffffffffffffff168173ffffffffffffffffffffffffffffffffffffffff16036108dc576040517f08c379a00000000000000000000000000000000000000000000000000000000081526004016108d3906116b6565b60405180910390fd5b6108e581610a29565b50565b600160009054906101000a900473ffffffffffffffffffffffffffffffffffffffff1681565b610916610aed565b73ffffffffffffffffffffffffffffffffffffffff166109346107f0565b73ffffffffffffffffffffffffffffffffffffffff161461098a576040517f08c379a000000000000000000000000000000000000000000000000000000000815260040161098190611722565b60405180910390fd5b565b6000826109998584610af5565b1490509392505050565b610a248363a9059cbb60e01b84846040516024016109c2929190611751565b604051602081830303815290604052907bffffffffffffffffffffffffffffffffffffffffffffffffffffffff19166020820180517bffffffffffffffffffffffffffffffffffffffffffffffffffffffff8381831617835250505050610b4b565b505050565b60008060009054906101000a900473ffffffffffffffffffffffffffffffffffffffff169050816000806101000a81548173ffffffffffffffffffffffffffffffffffffffff021916908373ffffffffffffffffffffffffffffffffffffffff1602179055508173ffffffffffffffffffffffffffffffffffffffff168173ffffffffffffffffffffffffffffffffffffffff167f8be0079c531659141344cd1fd0a4f28419497f9722a3daafe3b4186f6b6457e060405160405180910390a35050565b600033905090565b60008082905060005b8451811015610b4057610b2b82868381518110610b1e57610b1d6113fc565b5b6020026020010151610c12565b91508080610b389061177a565b915050610afe565b508091505092915050565b6000610bad826040518060400160405280602081526020017f5361666545524332303a206c6f772d6c6576656c2063616c6c206661696c65648152508573ffffffffffffffffffffffffffffffffffffffff16610c3d9092919063ffffffff16565b9050600081511115610c0d5780806020019051810190610bcd91906117ee565b610c0c576040517f08c379a0000000000000000000000000000000000000000000000000000000008152600401610c039061188d565b60405180910390fd5b5b505050565b6000818310610c2a57610c258284610c55565b610c35565b610c348383610c55565b5b905092915050565b6060610c4c8484600085610c6c565b90509392505050565b600082600052816020526040600020905092915050565b606082471015610cb1576040517f08c379a0000000000000000000000000000000000000000000000000000000008152600401610ca89061191f565b60405180910390fd5b6000808673ffffffffffffffffffffffffffffffffffffffff168587604051610cda91906119b9565b60006040518083038185875af1925050503d8060008114610d17576040519150601f19603f3d011682016040523d82523d6000602084013e610d1c565b606091505b5091509150610d2d87838387610d39565b92505050949350505050565b60608315610d9b576000835103610d9357610d5385610dae565b610d92576040517f08c379a0000000000000000000000000000000000000000000000000000000008152600401610d8990611a1c565b60405180910390fd5b5b829050610da6565b610da58383610dd1565b5b949350505050565b6000808273ffffffffffffffffffffffffffffffffffffffff163b119050919050565b600082511115610de45781518083602001fd5b806040517f08c379a0000000000000000000000000000000000000000000000000000000008152600401610e189190611a91565b60405180910390fd5b600080fd5b600080fd5b600073ffffffffffffffffffffffffffffffffffffffff82169050919050565b6000610e5682610e2b565b9050919050565b610e6681610e4b565b8114610e7157600080fd5b50565b600081359050610e8381610e5d565b92915050565b600060208284031215610e9f57610e9e610e21565b5b6000610ead84828501610e74565b91505092915050565b60008115159050919050565b610ecb81610eb6565b82525050565b6000602082019050610ee66000830184610ec2565b92915050565b600080fd5b600080fd5b600080fd5b60008083601f840112610f1157610f10610eec565b5b8235905067ffffffffffffffff811115610f2e57610f2d610ef1565b5b602083019150836020820283011115610f4a57610f49610ef6565b5b9250929050565b6000819050919050565b610f6481610f51565b8114610f6f57600080fd5b50565b600081359050610f8181610f5b565b92915050565b60008083601f840112610f9d57610f9c610eec565b5b8235905067ffffffffffffffff811115610fba57610fb9610ef1565b5b602083019150836020820283011115610fd657610fd5610ef6565b5b9250929050565b600080600080600060608688031215610ff957610ff8610e21565b5b600086013567ffffffffffffffff81111561101757611016610e26565b5b61102388828901610efb565b9550955050602061103688828901610f72565b935050604086013567ffffffffffffffff81111561105757611056610e26565b5b61106388828901610f87565b92509250509295509295909350565b6000819050919050565b61108581611072565b82525050565b60006020820190506110a0600083018461107c565b92915050565b6110af81610e4b565b82525050565b60006020820190506110ca60008301846110a6565b92915050565b6000819050919050565b60006110f56110f06110eb84610e2b565b6110d0565b610e2b565b9050919050565b6000611107826110da565b9050919050565b6000611119826110fc565b9050919050565b6111298161110e565b82525050565b60006020820190506111446000830184611120565b92915050565b600082825260208201905092915050565b7f4e756d626572206f6620726563697069656e7473206973207a65726f00000000600082015250565b6000611191601c8361114a565b915061119c8261115b565b602082019050919050565b600060208201905081810360008301526111c081611184565b9050919050565b7f546f6f206d616e792061646472657373657320666f72207472616e7366657200600082015250565b60006111fd601f8361114a565b9150611208826111c7565b602082019050919050565b6000602082019050818103600083015261122c816111f0565b9050919050565b7f4e756d626572206f662070726f6f667320646f6573206e6f74206d617463682060008201527f6e756d626572206f6620726563697069656e7473000000000000000000000000602082015250565b600061128f60348361114a565b915061129a82611233565b604082019050919050565b600060208201905081810360008301526112be81611282565b9050919050565b7f4e487b7100000000000000000000000000000000000000000000000000000000600052601160045260246000fd5b60006112ff82610f51565b915061130a83610f51565b9250817fffffffffffffffffffffffffffffffffffffffffffffffffffffffffffffffff0483118215151615611343576113426112c5565b5b828202905092915050565b60008151905061135d81610f5b565b92915050565b60006020828403121561137957611378610e21565b5b60006113878482850161134e565b91505092915050565b7f496e73756666696369656e742062616c616e636520696e20636f6e7472616374600082015250565b60006113c660208361114a565b91506113d182611390565b602082019050919050565b600060208201905081810360008301526113f5816113b9565b9050919050565b7f4e487b7100000000000000000000000000000000000000000000000000000000600052603260045260246000fd5b600080fd5b600080fd5b600080fd5b600080833560016020038436030381126114575761145661142b565b5b80840192508235915067ffffffffffffffff82111561147957611478611430565b5b60208301925060208202360383131561149557611494611435565b5b509250929050565b60008160601b9050919050565b60006114b58261149d565b9050919050565b60006114c7826114aa565b9050919050565b6114df6114da82610e4b565b6114bc565b82525050565b60006114f182846114ce565b60148201915081905092915050565b7f496e76616c6964204d65726b6c652050726f6f66000000000000000000000000600082015250565b600061153660148361114a565b915061154182611500565b602082019050919050565b6000602082019050818103600083015261156581611529565b9050919050565b7f416c72656164792061697264726f7070656420746f20726563697069656e7400600082015250565b60006115a2601f8361114a565b91506115ad8261156c565b602082019050919050565b600060208201905081810360008301526115d181611595565b9050919050565b7f436f6e74726163742062616c616e6365206973207a65726f2e00000000000000600082015250565b600061160e60198361114a565b9150611619826115d8565b602082019050919050565b6000602082019050818103600083015261163d81611601565b9050919050565b7f4f776e61626c653a206e6577206f776e657220697320746865207a65726f206160008201527f6464726573730000000000000000000000000000000000000000000000000000602082015250565b60006116a060268361114a565b91506116ab82611644565b604082019050919050565b600060208201905081810360008301526116cf81611693565b9050919050565b7f4f776e61626c653a2063616c6c6572206973206e6f7420746865206f776e6572600082015250565b600061170c60208361114a565b9150611717826116d6565b602082019050919050565b6000602082019050818103600083015261173b816116ff565b9050919050565b61174b81610f51565b82525050565b600060408201905061176660008301856110a6565b6117736020830184611742565b9392505050565b600061178582610f51565b91507fffffffffffffffffffffffffffffffffffffffffffffffffffffffffffffffff82036117b7576117b66112c5565b5b600182019050919050565b6117cb81610eb6565b81146117d657600080fd5b50565b6000815190506117e8816117c2565b92915050565b60006020828403121561180457611803610e21565b5b6000611812848285016117d9565b91505092915050565b7f5361666545524332303a204552433230206f7065726174696f6e20646964206e60008201527f6f74207375636365656400000000000000000000000000000000000000000000602082015250565b6000611877602a8361114a565b91506118828261181b565b604082019050919050565b600060208201905081810360008301526118a68161186a565b9050919050565b7f416464726573733a20696e73756666696369656e742062616c616e636520666f60008201527f722063616c6c0000000000000000000000000000000000000000000000000000602082015250565b600061190960268361114a565b9150611914826118ad565b604082019050919050565b60006020820190508181036000830152611938816118fc565b9050919050565b600081519050919050565b600081905092915050565b60005b83811015611973578082015181840152602081019050611958565b83811115611982576000848401525b50505050565b60006119938261193f565b61199d818561194a565b93506119ad818560208601611955565b80840191505092915050565b60006119c58284611988565b915081905092915050565b7f416464726573733a2063616c6c20746f206e6f6e2d636f6e7472616374000000600082015250565b6000611a06601d8361114a565b9150611a11826119d0565b602082019050919050565b60006020820190508181036000830152611a35816119f9565b9050919050565b600081519050919050565b6000601f19601f8301169050919050565b6000611a6382611a3c565b611a6d818561114a565b9350611a7d818560208601611955565b611a8681611a47565b840191505092915050565b60006020820190508181036000830152611aab8184611a58565b90509291505056fea2646970667358221220f514b31e644553c78fdf670bea72ed4e1e92251237e896ec7150be9fba20321364736f6c634300080d0033",
  "immutableReferences": {
    "1691": [
      {
        "length": 32,
        "start": 1093
      },
      {
        "length": 32,
        "start": 1595
      }
    ]
  },
  "source": "// SPDX-License-Identifier: MIT\npragma solidity ^0.8.13;\n\nimport \"@openzeppelin/contracts/token/ERC20/IERC20.sol\";\nimport \"@openzeppelin/contracts/token/ERC20/utils/SafeERC20.sol\";\nimport \"@openzeppelin/contracts/utils/math/SafeMath.sol\";\nimport \"@openzeppelin/contracts/access/Ownable.sol\";\nimport \"@openzeppelin/contracts/utils/cryptography/MerkleProof.sol\";\n\ncontract BatchTransfer is Ownable {\n    //libraries\n    using SafeMath for uint256;\n    using SafeERC20 for IERC20;\n\n    //state variables\n    bytes32 public immutable merkleRoot;\n    IERC20 public token;\n    mapping (address => bool) public hasAirdropped;\n\n    //events\n    event Airdropped(address indexed user, uint256 indexed amount);\n    event WithdrawBalance(address indexed owner, uint256 indexed balance);\n\n    constructor(address _token, bytes32 _merkleRoot) {\n        token = IERC20(_token);\n        merkleRoot = _merkleRoot;\n    }\n\n    //function to batch transfer (up to 100 addresses at a time)\n    function batchTransfer(\n        address[] calldata _recipients, \n        uint256 _amount,\n        bytes32[][] calldata _merkleProofs\n    ) public onlyOwner{\n        uint256 arrayLength = _recipients.length;\n        require(arrayLength > 0, \"Number of recipients is zero\");\n        require(arrayLength <= 100, \"Too many addresses for transfer\");\n        require(arrayLength == _merkleProofs.length, \"Number of proofs does not match number of recipients\");\n\n        uint256 totalTransferAmount = _amount * arrayLength;\n        require(totalTransferAmount <= token.balanceOf(address(this)), \"Insufficient balance in contract\");\n\n        for (uint256 i = 0; i < arrayLength; ) {\n            address recipient = _recipients[i];\n            bytes32[] memory merkleProof = _merkleProofs[i];\n            bytes32 node = keccak256(abi.encodePacked(recipient));\n            require(MerkleProof.verify(merkleProof, merkleRoot, node), \"Invalid Merkle Proof\");\n            \n            require(!hasAirdropped[recipient], \"Already airdropped to recipient\");\n            token.safeTransfer(recipient, _amount);\n            hasAirdropped[recipient] = true;\n\n            emit Airdropped(recipient, _amount);\n            unchecked {\n                i++;\n            }\n        }\n    }\n\n    //function to withdraw contract balance\n    function withdrawBalance() external onlyOwner {\n        uint256 contractBalance = token.balanceOf(address(this));\n        require(contractBalance > 0, \"Contract balance is zero.\");\n        token.safeTransfer(msg.sender, contractBalance);\n        \n        emit WithdrawBalance(msg.sender, contractBalance);\n    }\n\n    //function to update token\n    function updateTokenContract(address _new) external onlyOwner {\n        token = IERC20(_new);\n    }\n}",
  "sourcePath": "/Users/malcolmtan/Projects/BavaAirdrop/contracts/BatchTransfer.sol",
  "compiler": {
    "name": "solc",
    "version": "0.8.13+commit.abaa5c0e.Emscripten.clang"
  },
  "schemaVersion": "3.4.9",
  "updatedAt": "2023-06-28T04:39:02.968Z",
  "networkType": "ethereum",
  "devdoc": {
    "kind": "dev",
    "methods": {
      "owner()": {
        "details": "Returns the address of the current owner."
      },
      "renounceOwnership()": {
        "details": "Leaves the contract without owner. It will not be possible to call `onlyOwner` functions anymore. Can only be called by the current owner. NOTE: Renouncing ownership will leave the contract without an owner, thereby removing any functionality that is only available to the owner."
      },
      "transferOwnership(address)": {
        "details": "Transfers ownership of the contract to a new account (`newOwner`). Can only be called by the current owner."
      }
    },
    "version": 1
  },
  "userdoc": {
    "kind": "user",
    "methods": {},
    "version": 1
  }
}